{
  "contractName": "PiggyBank",
  "abi": [
    {
      "anonymous": false,
      "inputs": [
        {
          "indexed": true,
          "internalType": "address",
          "name": "previousOwner",
          "type": "address"
        },
        {
          "indexed": true,
          "internalType": "address",
          "name": "newOwner",
          "type": "address"
        }
      ],
      "name": "OwnershipTransferred",
      "type": "event"
    },
    {
      "stateMutability": "payable",
      "type": "fallback"
    },
    {
      "inputs": [],
      "name": "owner",
      "outputs": [
        {
          "internalType": "address",
          "name": "",
          "type": "address"
        }
      ],
      "stateMutability": "view",
      "type": "function"
    },
    {
      "inputs": [],
      "name": "renounceOwnership",
      "outputs": [],
      "stateMutability": "nonpayable",
      "type": "function"
    },
    {
      "inputs": [
        {
          "internalType": "address",
          "name": "newOwner",
          "type": "address"
        }
      ],
      "name": "transferOwnership",
      "outputs": [],
      "stateMutability": "nonpayable",
      "type": "function"
    },
    {
      "stateMutability": "payable",
      "type": "receive"
    },
    {
      "inputs": [],
      "name": "withDraw",
      "outputs": [
        {
          "internalType": "bool",
          "name": "",
          "type": "bool"
        }
      ],
      "stateMutability": "nonpayable",
      "type": "function"
    },
    {
      "inputs": [],
      "name": "getBalance",
      "outputs": [
        {
          "internalType": "uint256",
          "name": "",
          "type": "uint256"
        }
      ],
      "stateMutability": "view",
      "type": "function"
    }
  ],
  "bytecode": "0x608060405234801561001057600080fd5b5061002d61002261003260201b60201c565b61003a60201b60201c565b6100fe565b600033905090565b60008060009054906101000a900473ffffffffffffffffffffffffffffffffffffffff169050816000806101000a81548173ffffffffffffffffffffffffffffffffffffffff021916908373ffffffffffffffffffffffffffffffffffffffff1602179055508173ffffffffffffffffffffffffffffffffffffffff168173ffffffffffffffffffffffffffffffffffffffff167f8be0079c531659141344cd1fd0a4f28419497f9722a3daafe3b4186f6b6457e060405160405180910390a35050565b6106d78061010d6000396000f3fe60806040526004361061004e5760003560e01c80630fdb1c101461005757806312065fe014610082578063715018a6146100ad5780638da5cb5b146100c4578063f2fde38b146100ef57610055565b3661005557005b005b34801561006357600080fd5b5061006c610118565b6040516100799190610489565b60405180910390f35b34801561008e57600080fd5b506100976101f1565b6040516100a491906104bd565b60405180910390f35b3480156100b957600080fd5b506100c26101f9565b005b3480156100d057600080fd5b506100d9610281565b6040516100e69190610519565b60405180910390f35b3480156100fb57600080fd5b5061011660048036038101906101119190610565565b6102aa565b005b60006101226103a2565b73ffffffffffffffffffffffffffffffffffffffff16610140610281565b73ffffffffffffffffffffffffffffffffffffffff1614610196576040517f08c379a000000000000000000000000000000000000000000000000000000000815260040161018d906105ef565b60405180910390fd5b60006101a0610281565b90508073ffffffffffffffffffffffffffffffffffffffff166108fc479081150290604051600060405180830381858888f193505050501580156101e8573d6000803e3d6000fd5b50600191505090565b600047905090565b6102016103a2565b73ffffffffffffffffffffffffffffffffffffffff1661021f610281565b73ffffffffffffffffffffffffffffffffffffffff1614610275576040517f08c379a000000000000000000000000000000000000000000000000000000000815260040161026c906105ef565b60405180910390fd5b61027f60006103aa565b565b60008060009054906101000a900473ffffffffffffffffffffffffffffffffffffffff16905090565b6102b26103a2565b73ffffffffffffffffffffffffffffffffffffffff166102d0610281565b73ffffffffffffffffffffffffffffffffffffffff1614610326576040517f08c379a000000000000000000000000000000000000000000000000000000000815260040161031d906105ef565b60405180910390fd5b600073ffffffffffffffffffffffffffffffffffffffff168173ffffffffffffffffffffffffffffffffffffffff161415610396576040517f08c379a000000000000000000000000000000000000000000000000000000000815260040161038d90610681565b60405180910390fd5b61039f816103aa565b50565b600033905090565b60008060009054906101000a900473ffffffffffffffffffffffffffffffffffffffff169050816000806101000a81548173ffffffffffffffffffffffffffffffffffffffff021916908373ffffffffffffffffffffffffffffffffffffffff1602179055508173ffffffffffffffffffffffffffffffffffffffff168173ffffffffffffffffffffffffffffffffffffffff167f8be0079c531659141344cd1fd0a4f28419497f9722a3daafe3b4186f6b6457e060405160405180910390a35050565b60008115159050919050565b6104838161046e565b82525050565b600060208201905061049e600083018461047a565b92915050565b6000819050919050565b6104b7816104a4565b82525050565b60006020820190506104d260008301846104ae565b92915050565b600073ffffffffffffffffffffffffffffffffffffffff82169050919050565b6000610503826104d8565b9050919050565b610513816104f8565b82525050565b600060208201905061052e600083018461050a565b92915050565b600080fd5b610542816104f8565b811461054d57600080fd5b50565b60008135905061055f81610539565b92915050565b60006020828403121561057b5761057a610534565b5b600061058984828501610550565b91505092915050565b600082825260208201905092915050565b7f4f776e61626c653a2063616c6c6572206973206e6f7420746865206f776e6572600082015250565b60006105d9602083610592565b91506105e4826105a3565b602082019050919050565b60006020820190508181036000830152610608816105cc565b9050919050565b7f4f776e61626c653a206e6577206f776e657220697320746865207a65726f206160008201527f6464726573730000000000000000000000000000000000000000000000000000602082015250565b600061066b602683610592565b91506106768261060f565b604082019050919050565b6000602082019050818103600083015261069a8161065e565b905091905056fea2646970667358221220d1c46bb6bf58f97ea0117f0b86b3b846fba8c47296431eab58db22e700e26b2064736f6c63430008090033",
  "immutableReferences": {},
  "source": "pragma solidity ^0.8.0;\r\n\r\nimport \"../node_modules/@openzeppelin/contracts/access/Ownable.sol\";\r\n\r\ncontract PiggyBank is Ownable{\r\n    \r\n    function withDraw()  public onlyOwner returns(bool){\r\n        address _owner = owner();\r\n        payable(_owner).transfer(address(this).balance);\r\n        return true;\r\n    }\r\n    \r\n    function getBalance() public view returns(uint256){\r\n        return address(this).balance;\r\n    }\r\n    \r\n    fallback() external payable {}\r\n    receive() external payable {} \r\n}",
  "sourcePath": "D:/TRU-Group/proyecto-react-tru/contracts/PiggyBank.sol",
  "compiler": {
    "name": "solc",
    "version": "0.8.9+commit.e5eed63a.Emscripten.clang"
  },
  "schemaVersion": "3.3.4",
  "updatedAt": "2021-10-09T20:35:57.069Z",
  "devdoc": {
    "kind": "dev",
    "methods": {
      "owner()": {
        "details": "Returns the address of the current owner."
      },
      "renounceOwnership()": {
        "details": "Leaves the contract without owner. It will not be possible to call `onlyOwner` functions anymore. Can only be called by the current owner. NOTE: Renouncing ownership will leave the contract without an owner, thereby removing any functionality that is only available to the owner."
      },
      "transferOwnership(address)": {
        "details": "Transfers ownership of the contract to a new account (`newOwner`). Can only be called by the current owner."
      }
    },
    "version": 1
  },
  "userdoc": {
    "kind": "user",
    "methods": {},
    "version": 1
  }
}