{
  "contractName": "PiggyBankFactory",
  "abi": [
    {
      "inputs": [],
      "stateMutability": "nonpayable",
      "type": "constructor"
    },
    {
      "inputs": [],
      "name": "createPiggyBank",
      "outputs": [],
      "stateMutability": "nonpayable",
      "type": "function"
    },
    {
      "inputs": [
        {
          "internalType": "uint256",
          "name": "_piggyId",
          "type": "uint256"
        }
      ],
      "name": "getPiggyBankAddress",
      "outputs": [
        {
          "internalType": "contract PiggyBank",
          "name": "",
          "type": "address"
        }
      ],
      "stateMutability": "view",
      "type": "function",
      "constant": true
    },
    {
      "inputs": [],
      "name": "getPiggyQtyAccounts",
      "outputs": [
        {
          "internalType": "uint256",
          "name": "",
          "type": "uint256"
        }
      ],
      "stateMutability": "view",
      "type": "function",
      "constant": true
    }
  ],
  "bytecode": "0x608060405234801561001057600080fd5b5060008081905550610c36806100276000396000f3fe608060405234801561001057600080fd5b50600436106100415760003560e01c806335b18e11146100465780639a4db01d14610076578063e59910d514610094575b600080fd5b610060600480360381019061005b9190610236565b61009e565b60405161006d91906102e2565b60405180910390f35b61007e6100db565b60405161008b919061030c565b60405180910390f35b61009c6100e4565b005b60006001600083815260200190815260200160002060009054906101000a900473ffffffffffffffffffffffffffffffffffffffff169050919050565b60008054905090565b60006040516100f2906101ee565b604051809103906000f08015801561010e573d6000803e3d6000fd5b509050600073ffffffffffffffffffffffffffffffffffffffff168173ffffffffffffffffffffffffffffffffffffffff161415610181576040517f08c379a000000000000000000000000000000000000000000000000000000000815260040161017890610384565b60405180910390fd5b600080815480929190610193906103d3565b919050555080600160008054815260200190815260200160002060006101000a81548173ffffffffffffffffffffffffffffffffffffffff021916908373ffffffffffffffffffffffffffffffffffffffff16021790555050565b6107e48061041d83390190565b600080fd5b6000819050919050565b61021381610200565b811461021e57600080fd5b50565b6000813590506102308161020a565b92915050565b60006020828403121561024c5761024b6101fb565b5b600061025a84828501610221565b91505092915050565b600073ffffffffffffffffffffffffffffffffffffffff82169050919050565b6000819050919050565b60006102a86102a361029e84610263565b610283565b610263565b9050919050565b60006102ba8261028d565b9050919050565b60006102cc826102af565b9050919050565b6102dc816102c1565b82525050565b60006020820190506102f760008301846102d3565b92915050565b61030681610200565b82525050565b600060208201905061032160008301846102fd565b92915050565b600082825260208201905092915050565b7f456c20636f6e747261746f206465626520646573706c65676172736500000000600082015250565b600061036e601c83610327565b915061037982610338565b602082019050919050565b6000602082019050818103600083015261039d81610361565b9050919050565b7f4e487b7100000000000000000000000000000000000000000000000000000000600052601160045260246000fd5b60006103de82610200565b91507fffffffffffffffffffffffffffffffffffffffffffffffffffffffffffffffff821415610411576104106103a4565b5b60018201905091905056fe608060405234801561001057600080fd5b5061002d61002261003260201b60201c565b61003a60201b60201c565b6100fe565b600033905090565b60008060009054906101000a900473ffffffffffffffffffffffffffffffffffffffff169050816000806101000a81548173ffffffffffffffffffffffffffffffffffffffff021916908373ffffffffffffffffffffffffffffffffffffffff1602179055508173ffffffffffffffffffffffffffffffffffffffff168173ffffffffffffffffffffffffffffffffffffffff167f8be0079c531659141344cd1fd0a4f28419497f9722a3daafe3b4186f6b6457e060405160405180910390a35050565b6106d78061010d6000396000f3fe60806040526004361061004e5760003560e01c80630fdb1c101461005757806312065fe014610082578063715018a6146100ad5780638da5cb5b146100c4578063f2fde38b146100ef57610055565b3661005557005b005b34801561006357600080fd5b5061006c610118565b6040516100799190610489565b60405180910390f35b34801561008e57600080fd5b506100976101f1565b6040516100a491906104bd565b60405180910390f35b3480156100b957600080fd5b506100c26101f9565b005b3480156100d057600080fd5b506100d9610281565b6040516100e69190610519565b60405180910390f35b3480156100fb57600080fd5b5061011660048036038101906101119190610565565b6102aa565b005b60006101226103a2565b73ffffffffffffffffffffffffffffffffffffffff16610140610281565b73ffffffffffffffffffffffffffffffffffffffff1614610196576040517f08c379a000000000000000000000000000000000000000000000000000000000815260040161018d906105ef565b60405180910390fd5b60006101a0610281565b90508073ffffffffffffffffffffffffffffffffffffffff166108fc479081150290604051600060405180830381858888f193505050501580156101e8573d6000803e3d6000fd5b50600191505090565b600047905090565b6102016103a2565b73ffffffffffffffffffffffffffffffffffffffff1661021f610281565b73ffffffffffffffffffffffffffffffffffffffff1614610275576040517f08c379a000000000000000000000000000000000000000000000000000000000815260040161026c906105ef565b60405180910390fd5b61027f60006103aa565b565b60008060009054906101000a900473ffffffffffffffffffffffffffffffffffffffff16905090565b6102b26103a2565b73ffffffffffffffffffffffffffffffffffffffff166102d0610281565b73ffffffffffffffffffffffffffffffffffffffff1614610326576040517f08c379a000000000000000000000000000000000000000000000000000000000815260040161031d906105ef565b60405180910390fd5b600073ffffffffffffffffffffffffffffffffffffffff168173ffffffffffffffffffffffffffffffffffffffff161415610396576040517f08c379a000000000000000000000000000000000000000000000000000000000815260040161038d90610681565b60405180910390fd5b61039f816103aa565b50565b600033905090565b60008060009054906101000a900473ffffffffffffffffffffffffffffffffffffffff169050816000806101000a81548173ffffffffffffffffffffffffffffffffffffffff021916908373ffffffffffffffffffffffffffffffffffffffff1602179055508173ffffffffffffffffffffffffffffffffffffffff168173ffffffffffffffffffffffffffffffffffffffff167f8be0079c531659141344cd1fd0a4f28419497f9722a3daafe3b4186f6b6457e060405160405180910390a35050565b60008115159050919050565b6104838161046e565b82525050565b600060208201905061049e600083018461047a565b92915050565b6000819050919050565b6104b7816104a4565b82525050565b60006020820190506104d260008301846104ae565b92915050565b600073ffffffffffffffffffffffffffffffffffffffff82169050919050565b6000610503826104d8565b9050919050565b610513816104f8565b82525050565b600060208201905061052e600083018461050a565b92915050565b600080fd5b610542816104f8565b811461054d57600080fd5b50565b60008135905061055f81610539565b92915050565b60006020828403121561057b5761057a610534565b5b600061058984828501610550565b91505092915050565b600082825260208201905092915050565b7f4f776e61626c653a2063616c6c6572206973206e6f7420746865206f776e6572600082015250565b60006105d9602083610592565b91506105e4826105a3565b602082019050919050565b60006020820190508181036000830152610608816105cc565b9050919050565b7f4f776e61626c653a206e6577206f776e657220697320746865207a65726f206160008201527f6464726573730000000000000000000000000000000000000000000000000000602082015250565b600061066b602683610592565b91506106768261060f565b604082019050919050565b6000602082019050818103600083015261069a8161065e565b905091905056fea2646970667358221220a31a5f42975b6097cc53ca08de7c341dc8fdb5cc1ee64a1acdba90f000d359a364736f6c63430008090033a26469706673582212209b103681bc124e8431a1fb341ad55ec19e979755eeef019074ab5d91708943d664736f6c63430008090033",
  "immutableReferences": {},
  "source": "pragma solidity ^0.8.0;\r\n\r\nimport \"./PiggyBank.sol\";\r\n\r\ncontract PiggyBankFactory{\r\n    uint256 private _piggyAccountsCounter;\r\n    \r\n    constructor(){\r\n        _piggyAccountsCounter = 0;\r\n    }\r\n    \r\n    struct PiggyAccounts{\r\n        PiggyBank singlePiggyBank;\r\n        uint amount;\r\n    }\r\n    \r\n    mapping (uint256 => PiggyBank) private  accounts;\r\n    \r\n    function createPiggyBank() public {\r\n        PiggyBank newPiggyBank = new PiggyBank();\r\n        require(address(newPiggyBank) != address(0), \"El contrato debe desplegarse\");\r\n        _piggyAccountsCounter++; \r\n        accounts[_piggyAccountsCounter] = newPiggyBank;        \r\n    }\r\n\r\n    function getPiggyBankAddress(uint _piggyId) public view returns(PiggyBank){\r\n        return accounts[_piggyId];\r\n    }\r\n    \r\n    function getPiggyQtyAccounts() public view returns(uint256){\r\n        return _piggyAccountsCounter;\r\n    }\r\n    \r\n}",
  "sourcePath": "D:/TRU-Group/proyecto-react-tru/contracts/PiggyBankFactory.sol",
  "compiler": {
    "name": "solc",
    "version": "0.8.9+commit.e5eed63a.Emscripten.clang"
  },
  "schemaVersion": "3.3.4",
  "updatedAt": "2021-10-23T22:46:58.383Z",
  "networkType": "ethereum",
  "devdoc": {
    "kind": "dev",
    "methods": {},
    "version": 1
  },
  "userdoc": {
    "kind": "user",
    "methods": {},
    "version": 1
  }
}