{
  "contractName": "PiggyBank",
  "abi": [
    {
      "inputs": [
        {
          "internalType": "address",
          "name": "_owner",
          "type": "address"
        }
      ],
      "stateMutability": "nonpayable",
      "type": "constructor"
    },
    {
      "stateMutability": "payable",
      "type": "fallback",
      "payable": true
    },
    {
      "stateMutability": "payable",
      "type": "receive",
      "payable": true
    },
    {
      "inputs": [],
      "name": "owner",
      "outputs": [
        {
          "internalType": "address",
          "name": "",
          "type": "address"
        }
      ],
      "stateMutability": "view",
      "type": "function",
      "constant": true
    },
    {
      "inputs": [],
      "name": "withDraw",
      "outputs": [
        {
          "internalType": "bool",
          "name": "",
          "type": "bool"
        }
      ],
      "stateMutability": "nonpayable",
      "type": "function"
    },
    {
      "inputs": [],
      "name": "getBalance",
      "outputs": [
        {
          "internalType": "uint256",
          "name": "",
          "type": "uint256"
        }
      ],
      "stateMutability": "view",
      "type": "function",
      "constant": true
    }
  ],
  "bytecode": "0x608060405234801561001057600080fd5b50604051610494380380610494833981810160405281019061003291906100fd565b600073ffffffffffffffffffffffffffffffffffffffff168173ffffffffffffffffffffffffffffffffffffffff1614156100a2576040517f08c379a000000000000000000000000000000000000000000000000000000000815260040161009990610166565b60405180910390fd5b806000806101000a81548173ffffffffffffffffffffffffffffffffffffffff021916908373ffffffffffffffffffffffffffffffffffffffff160217905550506101e0565b6000815190506100f7816101c9565b92915050565b60006020828403121561010f57600080fd5b600061011d848285016100e8565b91505092915050565b6000610133601983610186565b91507f446562652073657220756e206164647265732076616c69646f000000000000006000830152602082019050919050565b6000602082019050818103600083015261017f81610126565b9050919050565b600082825260208201905092915050565b60006101a2826101a9565b9050919050565b600073ffffffffffffffffffffffffffffffffffffffff82169050919050565b6101d281610197565b81146101dd57600080fd5b50565b6102a5806101ef6000396000f3fe6080604052600436106100385760003560e01c80630fdb1c101461004157806312065fe01461006c5780638da5cb5b146100975761003f565b3661003f57005b005b34801561004d57600080fd5b506100566100c2565b60405161006391906101f1565b60405180910390f35b34801561007857600080fd5b50610081610178565b60405161008e919061020c565b60405180910390f35b3480156100a357600080fd5b506100ac610180565b6040516100b991906101d6565b60405180910390f35b60008060009054906101000a900473ffffffffffffffffffffffffffffffffffffffff1673ffffffffffffffffffffffffffffffffffffffff163373ffffffffffffffffffffffffffffffffffffffff161461011d57600080fd5b6000610127610180565b90508073ffffffffffffffffffffffffffffffffffffffff166108fc479081150290604051600060405180830381858888f1935050505015801561016f573d6000803e3d6000fd5b50600191505090565b600047905090565b60008060009054906101000a900473ffffffffffffffffffffffffffffffffffffffff16905090565b6101b281610227565b82525050565b6101c181610239565b82525050565b6101d081610265565b82525050565b60006020820190506101eb60008301846101a9565b92915050565b600060208201905061020660008301846101b8565b92915050565b600060208201905061022160008301846101c7565b92915050565b600061023282610245565b9050919050565b60008115159050919050565b600073ffffffffffffffffffffffffffffffffffffffff82169050919050565b600081905091905056fea26469706673582212204ca436fa198401deab8a82986b8c7dfb9b82565277fce50f99f94925d558ad6e64736f6c63430008000033",
  "immutableReferences": {},
  "source": "pragma solidity 0.8.0;\r\n\r\ncontract PiggyBank{\r\n\r\n    address private contractOwner;\r\n    \r\n    constructor(address _owner){\r\n        require(_owner != address(0), \"Debe ser un addres valido\");\r\n        contractOwner = _owner;\r\n    }\r\n    \r\n    function owner() public view returns(address){\r\n        return contractOwner;\r\n    }\r\n\r\n    modifier isOwner(){\r\n        require(msg.sender == contractOwner);\r\n        _;\r\n    }\r\n    \r\n    function withDraw()  public isOwner returns(bool){\r\n        address _owner = owner();\r\n        payable(_owner).transfer(address(this).balance);\r\n        return true;\r\n    }\r\n    \r\n    function getBalance() public view returns(uint256){\r\n        return address(this).balance;\r\n    }  \r\n\r\n    fallback() external payable {}\r\n    receive() external payable {} \r\n}",
  "sourcePath": "D:\\TRU-Group\\proyecto-react-tru\\contracts\\PiggyBank.sol",
  "compiler": {
    "name": "solc",
    "version": "0.8.0+commit.c7dfd78e.Emscripten.clang"
  },
  "schemaVersion": "3.3.4",
  "updatedAt": "2021-11-07T23:45:23.123Z",
  "networkType": "ethereum",
  "devdoc": {
    "kind": "dev",
    "methods": {},
    "version": 1
  },
  "userdoc": {
    "kind": "user",
    "methods": {},
    "version": 1
  }
}