{
  "contractName": "PiggyBankFactory",
  "abi": [
    {
      "inputs": [
        {
          "internalType": "uint256",
          "name": "",
          "type": "uint256"
        }
      ],
      "name": "_piggyBanks",
      "outputs": [
        {
          "internalType": "contract PiggyBank",
          "name": "singlePiggyBank",
          "type": "address"
        },
        {
          "internalType": "uint256",
          "name": "amount",
          "type": "uint256"
        }
      ],
      "stateMutability": "view",
      "type": "function"
    },
    {
      "inputs": [],
      "name": "createPiggyBank",
      "outputs": [
        {
          "internalType": "contract PiggyBank",
          "name": "",
          "type": "address"
        }
      ],
      "stateMutability": "nonpayable",
      "type": "function"
    }
  ],
  "bytecode": "0x6080604052600160005534801561001557600080fd5b50610b9d806100256000396000f3fe608060405234801561001057600080fd5b50600436106100365760003560e01c8063df6f731a1461003b578063e59910d51461006c575b600080fd5b6100556004803603810190610050919061020c565b61008a565b6040516100639291906102c7565b60405180910390f35b6100746100ce565b60405161008191906102f0565b60405180910390f35b60016020528060005260406000206000915090508060000160009054906101000a900473ffffffffffffffffffffffffffffffffffffffff16908060010154905082565b6000806040516100dd906101c4565b604051809103906000f0801580156100f9573d6000803e3d6000fd5b50905060405180604001604052808273ffffffffffffffffffffffffffffffffffffffff1681526020018273ffffffffffffffffffffffffffffffffffffffff1631815250600160008054815260200190815260200160002060008201518160000160006101000a81548173ffffffffffffffffffffffffffffffffffffffff021916908373ffffffffffffffffffffffffffffffffffffffff160217905550602082015181600101559050506000808154809291906101b89061033a565b91905055508091505090565b6107e48061038483390190565b600080fd5b6000819050919050565b6101e9816101d6565b81146101f457600080fd5b50565b600081359050610206816101e0565b92915050565b600060208284031215610222576102216101d1565b5b6000610230848285016101f7565b91505092915050565b600073ffffffffffffffffffffffffffffffffffffffff82169050919050565b6000819050919050565b600061027e61027961027484610239565b610259565b610239565b9050919050565b600061029082610263565b9050919050565b60006102a282610285565b9050919050565b6102b281610297565b82525050565b6102c1816101d6565b82525050565b60006040820190506102dc60008301856102a9565b6102e960208301846102b8565b9392505050565b600060208201905061030560008301846102a9565b92915050565b7f4e487b7100000000000000000000000000000000000000000000000000000000600052601160045260246000fd5b6000610345826101d6565b91507fffffffffffffffffffffffffffffffffffffffffffffffffffffffffffffffff8214156103785761037761030b565b5b60018201905091905056fe608060405234801561001057600080fd5b5061002d61002261003260201b60201c565b61003a60201b60201c565b6100fe565b600033905090565b60008060009054906101000a900473ffffffffffffffffffffffffffffffffffffffff169050816000806101000a81548173ffffffffffffffffffffffffffffffffffffffff021916908373ffffffffffffffffffffffffffffffffffffffff1602179055508173ffffffffffffffffffffffffffffffffffffffff168173ffffffffffffffffffffffffffffffffffffffff167f8be0079c531659141344cd1fd0a4f28419497f9722a3daafe3b4186f6b6457e060405160405180910390a35050565b6106d78061010d6000396000f3fe60806040526004361061004e5760003560e01c80630fdb1c101461005757806312065fe014610082578063715018a6146100ad5780638da5cb5b146100c4578063f2fde38b146100ef57610055565b3661005557005b005b34801561006357600080fd5b5061006c610118565b6040516100799190610489565b60405180910390f35b34801561008e57600080fd5b506100976101f1565b6040516100a491906104bd565b60405180910390f35b3480156100b957600080fd5b506100c26101f9565b005b3480156100d057600080fd5b506100d9610281565b6040516100e69190610519565b60405180910390f35b3480156100fb57600080fd5b5061011660048036038101906101119190610565565b6102aa565b005b60006101226103a2565b73ffffffffffffffffffffffffffffffffffffffff16610140610281565b73ffffffffffffffffffffffffffffffffffffffff1614610196576040517f08c379a000000000000000000000000000000000000000000000000000000000815260040161018d906105ef565b60405180910390fd5b60006101a0610281565b90508073ffffffffffffffffffffffffffffffffffffffff166108fc479081150290604051600060405180830381858888f193505050501580156101e8573d6000803e3d6000fd5b50600191505090565b600047905090565b6102016103a2565b73ffffffffffffffffffffffffffffffffffffffff1661021f610281565b73ffffffffffffffffffffffffffffffffffffffff1614610275576040517f08c379a000000000000000000000000000000000000000000000000000000000815260040161026c906105ef565b60405180910390fd5b61027f60006103aa565b565b60008060009054906101000a900473ffffffffffffffffffffffffffffffffffffffff16905090565b6102b26103a2565b73ffffffffffffffffffffffffffffffffffffffff166102d0610281565b73ffffffffffffffffffffffffffffffffffffffff1614610326576040517f08c379a000000000000000000000000000000000000000000000000000000000815260040161031d906105ef565b60405180910390fd5b600073ffffffffffffffffffffffffffffffffffffffff168173ffffffffffffffffffffffffffffffffffffffff161415610396576040517f08c379a000000000000000000000000000000000000000000000000000000000815260040161038d90610681565b60405180910390fd5b61039f816103aa565b50565b600033905090565b60008060009054906101000a900473ffffffffffffffffffffffffffffffffffffffff169050816000806101000a81548173ffffffffffffffffffffffffffffffffffffffff021916908373ffffffffffffffffffffffffffffffffffffffff1602179055508173ffffffffffffffffffffffffffffffffffffffff168173ffffffffffffffffffffffffffffffffffffffff167f8be0079c531659141344cd1fd0a4f28419497f9722a3daafe3b4186f6b6457e060405160405180910390a35050565b60008115159050919050565b6104838161046e565b82525050565b600060208201905061049e600083018461047a565b92915050565b6000819050919050565b6104b7816104a4565b82525050565b60006020820190506104d260008301846104ae565b92915050565b600073ffffffffffffffffffffffffffffffffffffffff82169050919050565b6000610503826104d8565b9050919050565b610513816104f8565b82525050565b600060208201905061052e600083018461050a565b92915050565b600080fd5b610542816104f8565b811461054d57600080fd5b50565b60008135905061055f81610539565b92915050565b60006020828403121561057b5761057a610534565b5b600061058984828501610550565b91505092915050565b600082825260208201905092915050565b7f4f776e61626c653a2063616c6c6572206973206e6f7420746865206f776e6572600082015250565b60006105d9602083610592565b91506105e4826105a3565b602082019050919050565b60006020820190508181036000830152610608816105cc565b9050919050565b7f4f776e61626c653a206e6577206f776e657220697320746865207a65726f206160008201527f6464726573730000000000000000000000000000000000000000000000000000602082015250565b600061066b602683610592565b91506106768261060f565b604082019050919050565b6000602082019050818103600083015261069a8161065e565b905091905056fea2646970667358221220d1c46bb6bf58f97ea0117f0b86b3b846fba8c47296431eab58db22e700e26b2064736f6c63430008090033a26469706673582212206ea846e765be9ef953d3a94ff0f4b408271a6bbcf082a03b2d86413f8deaabac64736f6c63430008090033",
  "immutableReferences": {},
  "source": "pragma solidity ^0.8.0;\r\n\r\nimport \"./PiggyBank.sol\";\r\n\r\ncontract PiggyBankFactory{\r\n    uint256 private _piggyAccountsCounter = 1;\r\n    \r\n    struct PiggyAccounts{\r\n        PiggyBank singlePiggyBank;\r\n        uint amount;\r\n    }\r\n    \r\n    /*\r\n    struct PiggyAmounts{\r\n        address piggyAccount;\r\n        uint amountAccount;\r\n    }\r\n    */\r\n    \r\n    mapping (uint256 => PiggyAccounts) public _piggyBanks;\r\n    //mapping (uint256 => PiggyAmounts) public _piggyDetails;\r\n\r\n    function createPiggyBank() public returns(PiggyBank){\r\n        PiggyBank newPiggyBank = new PiggyBank();\r\n        _piggyBanks[_piggyAccountsCounter] = PiggyAccounts(newPiggyBank, address(newPiggyBank).balance);\r\n        _piggyAccountsCounter++;\r\n        return newPiggyBank;\r\n    }\r\n    \r\n}",
  "sourcePath": "D:/TRU-Group/proyecto-react-tru/contracts/PiggyBankFactory.sol",
  "compiler": {
    "name": "solc",
    "version": "0.8.9+commit.e5eed63a.Emscripten.clang"
  },
  "schemaVersion": "3.3.4",
  "updatedAt": "2021-10-09T20:27:27.991Z",
  "devdoc": {
    "kind": "dev",
    "methods": {},
    "version": 1
  },
  "userdoc": {
    "kind": "user",
    "methods": {},
    "version": 1
  }
}