{
  "contractName": "PiggyBankFactory",
  "abi": [
    {
      "inputs": [],
      "stateMutability": "nonpayable",
      "type": "constructor"
    },
    {
      "inputs": [],
      "name": "createPiggyBank",
      "outputs": [],
      "stateMutability": "nonpayable",
      "type": "function"
    },
    {
      "inputs": [
        {
          "internalType": "uint256",
          "name": "_piggyId",
          "type": "uint256"
        }
      ],
      "name": "getPiggyBankAddress",
      "outputs": [
        {
          "internalType": "contract PiggyBank",
          "name": "",
          "type": "address"
        }
      ],
      "stateMutability": "view",
      "type": "function",
      "constant": true
    },
    {
      "inputs": [],
      "name": "getPiggyQtyAccounts",
      "outputs": [
        {
          "internalType": "uint256",
          "name": "",
          "type": "uint256"
        }
      ],
      "stateMutability": "view",
      "type": "function",
      "constant": true
    }
  ],
  "bytecode": "0x608060405234801561001057600080fd5b50600080819055506108ec806100276000396000f3fe608060405234801561001057600080fd5b50600436106100415760003560e01c806335b18e11146100465780639a4db01d14610076578063e59910d514610094575b600080fd5b610060600480360381019061005b919061021b565b61009e565b60405161006d91906102cc565b60405180910390f35b61007e6100db565b60405161008b9190610307565b60405180910390f35b61009c6100e4565b005b60006001600083815260200190815260200160002060009054906101000a900473ffffffffffffffffffffffffffffffffffffffff169050919050565b60008054905090565b6000336040516100f3906101f9565b6100fd91906102b1565b604051809103906000f080158015610119573d6000803e3d6000fd5b509050600073ffffffffffffffffffffffffffffffffffffffff168173ffffffffffffffffffffffffffffffffffffffff16141561018c576040517f08c379a0000000000000000000000000000000000000000000000000000000008152600401610183906102e7565b60405180910390fd5b60008081548092919061019e90610393565b919050555080600160008054815260200190815260200160002060006101000a81548173ffffffffffffffffffffffffffffffffffffffff021916908373ffffffffffffffffffffffffffffffffffffffff16021790555050565b6104948061042383390190565b6000813590506102158161040b565b92915050565b60006020828403121561022d57600080fd5b600061023b84828501610206565b91505092915050565b61024d81610333565b82525050565b61025c8161036f565b82525050565b600061026f601c83610322565b91507f456c20636f6e747261746f206465626520646573706c656761727365000000006000830152602082019050919050565b6102ab81610365565b82525050565b60006020820190506102c66000830184610244565b92915050565b60006020820190506102e16000830184610253565b92915050565b6000602082019050818103600083015261030081610262565b9050919050565b600060208201905061031c60008301846102a2565b92915050565b600082825260208201905092915050565b600061033e82610345565b9050919050565b600073ffffffffffffffffffffffffffffffffffffffff82169050919050565b6000819050919050565b600061037a82610381565b9050919050565b600061038c82610345565b9050919050565b600061039e82610365565b91507fffffffffffffffffffffffffffffffffffffffffffffffffffffffffffffffff8214156103d1576103d06103dc565b5b600182019050919050565b7f4e487b7100000000000000000000000000000000000000000000000000000000600052601160045260246000fd5b61041481610365565b811461041f57600080fd5b5056fe608060405234801561001057600080fd5b50604051610494380380610494833981810160405281019061003291906100fd565b600073ffffffffffffffffffffffffffffffffffffffff168173ffffffffffffffffffffffffffffffffffffffff1614156100a2576040517f08c379a000000000000000000000000000000000000000000000000000000000815260040161009990610166565b60405180910390fd5b806000806101000a81548173ffffffffffffffffffffffffffffffffffffffff021916908373ffffffffffffffffffffffffffffffffffffffff160217905550506101e0565b6000815190506100f7816101c9565b92915050565b60006020828403121561010f57600080fd5b600061011d848285016100e8565b91505092915050565b6000610133601983610186565b91507f446562652073657220756e206164647265732076616c69646f000000000000006000830152602082019050919050565b6000602082019050818103600083015261017f81610126565b9050919050565b600082825260208201905092915050565b60006101a2826101a9565b9050919050565b600073ffffffffffffffffffffffffffffffffffffffff82169050919050565b6101d281610197565b81146101dd57600080fd5b50565b6102a5806101ef6000396000f3fe6080604052600436106100385760003560e01c80630fdb1c101461004157806312065fe01461006c5780638da5cb5b146100975761003f565b3661003f57005b005b34801561004d57600080fd5b506100566100c2565b60405161006391906101f1565b60405180910390f35b34801561007857600080fd5b50610081610178565b60405161008e919061020c565b60405180910390f35b3480156100a357600080fd5b506100ac610180565b6040516100b991906101d6565b60405180910390f35b60008060009054906101000a900473ffffffffffffffffffffffffffffffffffffffff1673ffffffffffffffffffffffffffffffffffffffff163373ffffffffffffffffffffffffffffffffffffffff161461011d57600080fd5b6000610127610180565b90508073ffffffffffffffffffffffffffffffffffffffff166108fc479081150290604051600060405180830381858888f1935050505015801561016f573d6000803e3d6000fd5b50600191505090565b600047905090565b60008060009054906101000a900473ffffffffffffffffffffffffffffffffffffffff16905090565b6101b281610227565b82525050565b6101c181610239565b82525050565b6101d081610265565b82525050565b60006020820190506101eb60008301846101a9565b92915050565b600060208201905061020660008301846101b8565b92915050565b600060208201905061022160008301846101c7565b92915050565b600061023282610245565b9050919050565b60008115159050919050565b600073ffffffffffffffffffffffffffffffffffffffff82169050919050565b600081905091905056fea26469706673582212204ca436fa198401deab8a82986b8c7dfb9b82565277fce50f99f94925d558ad6e64736f6c63430008000033a264697066735822122002713f906f23dcdcfa77c0629cd5b9023848c45e84252c375591aba73eb4094d64736f6c63430008000033",
  "immutableReferences": {},
  "source": "pragma solidity 0.8.0;\r\n\r\nimport \"./PiggyBank.sol\";\r\n\r\ncontract PiggyBankFactory{\r\n    uint256 private _piggyAccountsCounter;\r\n    \r\n    constructor(){\r\n        _piggyAccountsCounter = 0;\r\n    }\r\n    \r\n    struct PiggyAccounts{\r\n        PiggyBank singlePiggyBank;\r\n        uint amount;\r\n    }\r\n    \r\n    mapping (uint256 => PiggyBank) private  accounts;\r\n    \r\n    function createPiggyBank() public {\r\n        PiggyBank newPiggyBank = new PiggyBank(msg.sender);\r\n        require(address(newPiggyBank) != address(0), \"El contrato debe desplegarse\");\r\n        _piggyAccountsCounter++; \r\n        accounts[_piggyAccountsCounter] = newPiggyBank;        \r\n    }\r\n\r\n    function getPiggyBankAddress(uint _piggyId) public view returns(PiggyBank){\r\n        return accounts[_piggyId];\r\n    }\r\n    \r\n    function getPiggyQtyAccounts() public view returns(uint256){\r\n        return _piggyAccountsCounter;\r\n    }\r\n    \r\n}",
  "sourcePath": "D:/TRU-Group/proyecto-react-tru/contracts/PiggyBankFactory.sol",
  "compiler": {
    "name": "solc",
    "version": "0.8.0+commit.c7dfd78e.Emscripten.clang"
  },
  "schemaVersion": "3.3.4",
  "updatedAt": "2021-11-07T23:45:24.221Z",
  "networkType": "ethereum",
  "devdoc": {
    "kind": "dev",
    "methods": {},
    "version": 1
  },
  "userdoc": {
    "kind": "user",
    "methods": {},
    "version": 1
  }
}